{
  "_format": "hh3-artifact-1",
  "contractName": "RemoteHealthcareSystem",
  "sourceName": "contracts/RemoteHealthcareSystem.sol",
  "abi": [
    {
      "inputs": [],
      "stateMutability": "nonpayable",
      "type": "constructor"
    },
    {
      "anonymous": false,
      "inputs": [
        {
          "indexed": false,
          "internalType": "address",
          "name": "_address",
          "type": "address"
        }
      ],
      "name": "Alert_Patient_BloodPressure",
      "type": "event"
    },
    {
      "anonymous": false,
      "inputs": [
        {
          "indexed": false,
          "internalType": "address",
          "name": "_address",
          "type": "address"
        }
      ],
      "name": "Alert_Patient_HeartBeat",
      "type": "event"
    },
    {
      "anonymous": false,
      "inputs": [
        {
          "indexed": false,
          "internalType": "address",
          "name": "_address",
          "type": "address"
        }
      ],
      "name": "Alert_Patient_Temperature",
      "type": "event"
    },
    {
      "anonymous": false,
      "inputs": [
        {
          "indexed": false,
          "internalType": "address",
          "name": "_address",
          "type": "address"
        },
        {
          "indexed": false,
          "internalType": "uint256",
          "name": "_Doctor_ID",
          "type": "uint256"
        },
        {
          "indexed": false,
          "internalType": "string",
          "name": "_Doctor_Name",
          "type": "string"
        },
        {
          "indexed": false,
          "internalType": "uint8",
          "name": "_Doctor_Age",
          "type": "uint8"
        },
        {
          "indexed": false,
          "internalType": "string",
          "name": "_Doctor_Address",
          "type": "string"
        }
      ],
      "name": "Doctor_Added",
      "type": "event"
    },
    {
      "anonymous": false,
      "inputs": [
        {
          "indexed": false,
          "internalType": "address",
          "name": "_address",
          "type": "address"
        },
        {
          "indexed": false,
          "internalType": "string",
          "name": "_Doctor_Name",
          "type": "string"
        },
        {
          "indexed": false,
          "internalType": "uint8",
          "name": "_Doctor_Age",
          "type": "uint8"
        },
        {
          "indexed": false,
          "internalType": "string",
          "name": "_Doctor_Address",
          "type": "string"
        }
      ],
      "name": "Doctor_Modified",
      "type": "event"
    },
    {
      "anonymous": false,
      "inputs": [
        {
          "indexed": false,
          "internalType": "address",
          "name": "_address",
          "type": "address"
        }
      ],
      "name": "Doctor_Removed",
      "type": "event"
    },
    {
      "anonymous": false,
      "inputs": [
        {
          "indexed": false,
          "internalType": "address",
          "name": "_address",
          "type": "address"
        },
        {
          "indexed": false,
          "internalType": "uint256",
          "name": "_Patient_ID",
          "type": "uint256"
        },
        {
          "indexed": false,
          "internalType": "string",
          "name": "_Patient_Name",
          "type": "string"
        },
        {
          "indexed": false,
          "internalType": "uint8",
          "name": "_Patient_Age",
          "type": "uint8"
        },
        {
          "indexed": false,
          "internalType": "string",
          "name": "_Patient_Address",
          "type": "string"
        }
      ],
      "name": "Patient_Added",
      "type": "event"
    },
    {
      "anonymous": false,
      "inputs": [
        {
          "indexed": false,
          "internalType": "address",
          "name": "_address",
          "type": "address"
        },
        {
          "indexed": false,
          "internalType": "string",
          "name": "_Patient_Name",
          "type": "string"
        },
        {
          "indexed": false,
          "internalType": "uint8",
          "name": "_Patient_Age",
          "type": "uint8"
        },
        {
          "indexed": false,
          "internalType": "string",
          "name": "_Patient_Address",
          "type": "string"
        }
      ],
      "name": "Patient_Modified",
      "type": "event"
    },
    {
      "anonymous": false,
      "inputs": [
        {
          "indexed": false,
          "internalType": "address",
          "name": "_address",
          "type": "address"
        }
      ],
      "name": "Patient_Removed",
      "type": "event"
    },
    {
      "anonymous": false,
      "inputs": [
        {
          "indexed": false,
          "internalType": "address",
          "name": "_Patient_Account",
          "type": "address"
        },
        {
          "indexed": false,
          "internalType": "string",
          "name": "_Parameters",
          "type": "string"
        }
      ],
      "name": "Sensor_Data_Collected",
      "type": "event"
    },
    {
      "inputs": [
        {
          "internalType": "address",
          "name": "_address",
          "type": "address"
        },
        {
          "internalType": "string",
          "name": "_Doctor_Name",
          "type": "string"
        },
        {
          "internalType": "uint8",
          "name": "_Doctor_Age",
          "type": "uint8"
        },
        {
          "internalType": "string",
          "name": "_Doctor_Address",
          "type": "string"
        }
      ],
      "name": "Add_Doctor",
      "outputs": [],
      "stateMutability": "nonpayable",
      "type": "function"
    },
    {
      "inputs": [
        {
          "internalType": "address",
          "name": "_address",
          "type": "address"
        },
        {
          "internalType": "string",
          "name": "_Patient_Name",
          "type": "string"
        },
        {
          "internalType": "uint8",
          "name": "_Patient_Age",
          "type": "uint8"
        },
        {
          "internalType": "string",
          "name": "_Patient_Address",
          "type": "string"
        }
      ],
      "name": "Add_Patient",
      "outputs": [],
      "stateMutability": "nonpayable",
      "type": "function"
    },
    {
      "inputs": [
        {
          "internalType": "address",
          "name": "_Doctor_address",
          "type": "address"
        },
        {
          "internalType": "address",
          "name": "_Patient_address",
          "type": "address"
        }
      ],
      "name": "Authorize_Patient_For_Doctor",
      "outputs": [],
      "stateMutability": "nonpayable",
      "type": "function"
    },
    {
      "inputs": [
        {
          "internalType": "address",
          "name": "_Doctor_address",
          "type": "address"
        },
        {
          "internalType": "address",
          "name": "_Patient_address",
          "type": "address"
        }
      ],
      "name": "Cancel_Patient_For_Doctor",
      "outputs": [],
      "stateMutability": "nonpayable",
      "type": "function"
    },
    {
      "inputs": [
        {
          "internalType": "address",
          "name": "",
          "type": "address"
        }
      ],
      "name": "Doctor_Account_IsRegistered",
      "outputs": [
        {
          "internalType": "bool",
          "name": "",
          "type": "bool"
        }
      ],
      "stateMutability": "view",
      "type": "function"
    },
    {
      "inputs": [],
      "name": "Doctor_Id",
      "outputs": [
        {
          "internalType": "uint256",
          "name": "",
          "type": "uint256"
        }
      ],
      "stateMutability": "view",
      "type": "function"
    },
    {
      "inputs": [
        {
          "internalType": "address",
          "name": "_Doctor_address",
          "type": "address"
        },
        {
          "internalType": "address",
          "name": "_Patient_address",
          "type": "address"
        }
      ],
      "name": "Get_Authorize_Patient_For_Doctor",
      "outputs": [
        {
          "internalType": "bool",
          "name": "",
          "type": "bool"
        }
      ],
      "stateMutability": "view",
      "type": "function"
    },
    {
      "inputs": [
        {
          "internalType": "address",
          "name": "_address",
          "type": "address"
        }
      ],
      "name": "Get_Doctor",
      "outputs": [
        {
          "internalType": "address",
          "name": "",
          "type": "address"
        },
        {
          "internalType": "uint256",
          "name": "",
          "type": "uint256"
        },
        {
          "internalType": "string",
          "name": "",
          "type": "string"
        },
        {
          "internalType": "uint8",
          "name": "",
          "type": "uint8"
        },
        {
          "internalType": "string",
          "name": "",
          "type": "string"
        }
      ],
      "stateMutability": "view",
      "type": "function"
    },
    {
      "inputs": [
        {
          "internalType": "address",
          "name": "_address",
          "type": "address"
        }
      ],
      "name": "Get_Parameters",
      "outputs": [
        {
          "internalType": "string",
          "name": "",
          "type": "string"
        }
      ],
      "stateMutability": "view",
      "type": "function"
    },
    {
      "inputs": [
        {
          "internalType": "address",
          "name": "_address",
          "type": "address"
        }
      ],
      "name": "Get_Patient",
      "outputs": [
        {
          "internalType": "address",
          "name": "",
          "type": "address"
        },
        {
          "internalType": "uint256",
          "name": "",
          "type": "uint256"
        },
        {
          "internalType": "string",
          "name": "",
          "type": "string"
        },
        {
          "internalType": "uint8",
          "name": "",
          "type": "uint8"
        },
        {
          "internalType": "string",
          "name": "",
          "type": "string"
        }
      ],
      "stateMutability": "view",
      "type": "function"
    },
    {
      "inputs": [],
      "name": "Hospital",
      "outputs": [
        {
          "internalType": "address",
          "name": "",
          "type": "address"
        }
      ],
      "stateMutability": "view",
      "type": "function"
    },
    {
      "inputs": [
        {
          "internalType": "address",
          "name": "_address",
          "type": "address"
        },
        {
          "internalType": "string",
          "name": "_Doctor_Name",
          "type": "string"
        },
        {
          "internalType": "uint8",
          "name": "_Doctor_Age",
          "type": "uint8"
        },
        {
          "internalType": "string",
          "name": "_Doctor_Address",
          "type": "string"
        }
      ],
      "name": "Modify_Doctor",
      "outputs": [],
      "stateMutability": "nonpayable",
      "type": "function"
    },
    {
      "inputs": [
        {
          "internalType": "address",
          "name": "_address",
          "type": "address"
        },
        {
          "internalType": "string",
          "name": "_Patient_Name",
          "type": "string"
        },
        {
          "internalType": "uint8",
          "name": "_Patient_Age",
          "type": "uint8"
        },
        {
          "internalType": "string",
          "name": "_Patient_Address",
          "type": "string"
        }
      ],
      "name": "Modify_Patient",
      "outputs": [],
      "stateMutability": "nonpayable",
      "type": "function"
    },
    {
      "inputs": [],
      "name": "NumberOfDoctors",
      "outputs": [
        {
          "internalType": "uint256",
          "name": "",
          "type": "uint256"
        }
      ],
      "stateMutability": "view",
      "type": "function"
    },
    {
      "inputs": [],
      "name": "NumberOfPatients",
      "outputs": [
        {
          "internalType": "uint256",
          "name": "",
          "type": "uint256"
        }
      ],
      "stateMutability": "view",
      "type": "function"
    },
    {
      "inputs": [
        {
          "internalType": "address",
          "name": "",
          "type": "address"
        }
      ],
      "name": "Patient_Account_IsRegistered",
      "outputs": [
        {
          "internalType": "bool",
          "name": "",
          "type": "bool"
        }
      ],
      "stateMutability": "view",
      "type": "function"
    },
    {
      "inputs": [],
      "name": "Patient_Id",
      "outputs": [
        {
          "internalType": "uint256",
          "name": "",
          "type": "uint256"
        }
      ],
      "stateMutability": "view",
      "type": "function"
    },
    {
      "inputs": [
        {
          "internalType": "address",
          "name": "_address",
          "type": "address"
        }
      ],
      "name": "Remove_Doctor",
      "outputs": [],
      "stateMutability": "nonpayable",
      "type": "function"
    },
    {
      "inputs": [
        {
          "internalType": "address",
          "name": "_address",
          "type": "address"
        }
      ],
      "name": "Remove_Patient",
      "outputs": [],
      "stateMutability": "nonpayable",
      "type": "function"
    },
    {
      "inputs": [
        {
          "internalType": "string",
          "name": "_Parameters",
          "type": "string"
        }
      ],
      "name": "Set_Parameters",
      "outputs": [],
      "stateMutability": "nonpayable",
      "type": "function"
    }
  ],
  "bytecode": "0x6080604052348015600e575f5ffd5b505f80546001600160a01b031916331790556113c78061002d5f395ff3fe608060405234801561000f575f5ffd5b5060043610610127575f3560e01c80637692a0a4116100a9578063c6246f541161006e578063c6246f541461028f578063dff3b6b8146102a2578063e00d1f31146102b5578063eb7a1817146102df578063f0426bb1146102f2575f5ffd5b80637692a0a4146102355780638998d0801461023e5780639ea6b71814610247578063aed5ec4e14610269578063c4741cb51461027c575f5ffd5b806339278edf116100ef57806339278edf146101b35780633c0340fa146101ca5780633e2b5fd4146101dd578063482d246b146101f0578063555b92f914610222575f5ffd5b8063017d03c11461012b5780630459751e1461014057806307f2736c1461015357806328b8f10b1461018057806337a67663146101a0575b5f5ffd5b61013e610139366004611001565b6102fb565b005b61013e61014e36600461108d565b610455565b6101666101613660046110be565b6104ea565b60405161017795949392919061110c565b60405180910390f35b61019361018e3660046110be565b6106a1565b6040516101779190611159565b61013e6101ae36600461108d565b6107a6565b6101bc60075481565b604051908152602001610177565b61013e6101d8366004611001565b61083e565b61013e6101eb3660046110be565b610919565b6102126101fe3660046110be565b60026020525f908152604090205460ff1681565b6040519015158152602001610177565b6101666102303660046110be565b610a11565b6101bc60055481565b6101bc60035481565b6102126102553660046110be565b60066020525f908152604090205460ff1681565b61021261027736600461108d565b610ae1565b61013e61028a366004611001565b610b75565b61013e61029d3660046110be565b610cc0565b61013e6102b0366004611001565b610d9d565b5f546102c7906001600160a01b031681565b6040516001600160a01b039091168152602001610177565b61013e6102ed36600461116b565b610e6b565b6101bc60015481565b5f546001600160a01b03163314610310575f5ffd5b6001600160a01b038416610322575f5ffd5b6001600160a01b0384165f9081526002602052604090205460ff16151560010361034a575f5ffd5b6001600160a01b0384165f9081526006602052604090205460ff161515600103610372575f5ffd5b6001600160a01b0384165f818152600260209081526040808320805460ff191660011790556004909152812080546001600160a01b031916909217825560038054916103bd836111b9565b90915550506003546001820155600281016103d88582611255565b5060038101805460ff191660ff8516179055600481016103f88382611255565b5060018054905f610408836111b9565b91905055507f9081b5b3fed3abdd6f26fc2eb0aed62d359019ac67f6f4c1f3087154523b3c418560035486868660405161044695949392919061110c565b60405180910390a15050505050565b5f546001600160a01b0316331461046a575f5ffd5b6001600160a01b0381165f9081526002602052604090205460ff161515600114610492575f5ffd5b6001600160a01b0382165f9081526006602052604090205460ff1615156001146104ba575f5ffd5b6001600160a01b039182165f9081526009602090815260408083209390941682529190915220805460ff19169055565b6001600160a01b0381165f9081526006602052604081205481906060908290829060ff16610516575f5ffd5b5f546001600160a01b03163314806105365750336001600160a01b038716145b61053e575f5ffd5b6001600160a01b038087165f90815260086020526040902080546001820154600383015460028401805493909516949193919260ff90911691600401908390610586906111d1565b80601f01602080910402602001604051908101604052809291908181526020018280546105b2906111d1565b80156105fd5780601f106105d4576101008083540402835291602001916105fd565b820191905f5260205f20905b8154815290600101906020018083116105e057829003601f168201915b50505050509250808054610610906111d1565b80601f016020809104026020016040519081016040528092919081815260200182805461063c906111d1565b80156106875780601f1061065e57610100808354040283529160200191610687565b820191905f5260205f20905b81548152906001019060200180831161066a57829003601f168201915b505050505090509450945094509450945091939590929450565b5f546060906001600160a01b03163314806106e35750335f9081526009602090815260408083206001600160a01b038616845290915290205460ff1615156001145b806106f65750336001600160a01b038316145b6106fe575f5ffd5b6001600160a01b0382165f908152600a602052604090206001018054610723906111d1565b80601f016020809104026020016040519081016040528092919081815260200182805461074f906111d1565b801561079a5780601f106107715761010080835404028352916020019161079a565b820191905f5260205f20905b81548152906001019060200180831161077d57829003601f168201915b50505050509050919050565b5f546001600160a01b031633146107bb575f5ffd5b6001600160a01b0381165f9081526002602052604090205460ff1615156001146107e3575f5ffd5b6001600160a01b0382165f9081526006602052604090205460ff16151560011461080b575f5ffd5b6001600160a01b039182165f9081526009602090815260408083209390941682529190915220805460ff19166001179055565b5f546001600160a01b03163314610853575f5ffd5b6001600160a01b0384165f9081526006602052604090205460ff16151560011461087b575f5ffd5b6001600160a01b0384165f90815260086020526040902060020161089f8482611255565b506001600160a01b0384165f90815260086020526040902060038101805460ff191660ff85161790556004016108d58282611255565b507f3691acd74bfd093f1b7c7fd4173f7d859e564ba280637c963152a0b7929d64be8484848460405161090b9493929190611310565b60405180910390a150505050565b5f546001600160a01b0316331461092e575f5ffd5b6001600160a01b0381165f9081526002602052604090205460ff161515600114610956575f5ffd5b6001600160a01b0381165f908152600260208181526040808420805460ff191690556004909152822080546001600160a01b03191681556001810183905591906109a290830182610ef5565b60038201805460ff191690556109bb600483015f610ef5565b505060018054905f6109cc83611359565b90915550506040516001600160a01b03821681527feba44706c5e517ce46e46f9a2867658f2090b03d0d024c0e1811af478ee1b775906020015b60405180910390a150565b6001600160a01b0381165f9081526002602052604081205481906060908290829060ff16610a3d575f5ffd5b5f546001600160a01b0316331480610a7c5750335f9081526009602090815260408083206001600160a01b038a16845290915290205460ff1615156001145b80610a8f5750336001600160a01b038716145b610a97575f5ffd5b6001600160a01b038087165f90815260046020819052604090912080546001820154600383015460028401805493909616959194919360ff909116929101908390610586906111d1565b5f80546001600160a01b03163314610af7575f5ffd5b6001600160a01b0382165f9081526002602052604090205460ff161515600114610b1f575f5ffd5b6001600160a01b0383165f9081526006602052604090205460ff161515600114610b47575f5ffd5b506001600160a01b039182165f90815260096020908152604080832093909416825291909152205460ff1690565b5f546001600160a01b03163314610b8a575f5ffd5b6001600160a01b038416610b9c575f5ffd5b6001600160a01b0384165f9081526006602052604090205460ff161515600103610bc4575f5ffd5b6001600160a01b0384165f9081526002602052604090205460ff161515600103610bec575f5ffd5b6001600160a01b0384165f818152600660209081526040808320805460ff191660011790556008909152812080546001600160a01b03191690921782556007805491610c37836111b9565b9091555050600754600182015560028101610c528582611255565b5060038101805460ff191660ff851617905560048101610c728382611255565b5060058054905f610c82836111b9565b91905055507f41aadef1304256dcd1a9954603eaa536d74ec651a0639deb812a3eead6367b7f8560075486868660405161044695949392919061110c565b5f546001600160a01b03163314610cd5575f5ffd5b6001600160a01b0381165f9081526006602052604090205460ff161515600114610cfd575f5ffd5b6001600160a01b0381165f908152600660209081526040808320805460ff191690556008909152812080546001600160a01b03191681556001810182905590610d496002830182610ef5565b60038201805460ff19169055610d62600483015f610ef5565b50506040516001600160a01b03821681527f161143d591dd064a3abbe55f45fdb6ad5f262ccf8829e2e2d892f331439b2d6190602001610a06565b5f546001600160a01b03163314610db2575f5ffd5b6001600160a01b0384165f9081526002602052604090205460ff161515600114610dda575f5ffd5b6001600160a01b0384165f908152600460205260409020600201610dfe8482611255565b506001600160a01b0384165f90815260046020819052604090912060038101805460ff191660ff861617905501610e358282611255565b507f89ab82d2db7ae0864f7536953fb106382b79894f3aeea587013e0ed47bf1077a8484848460405161090b9493929190611310565b335f9081526002602052604090205460ff161515600114610e8a575f5ffd5b335f818152600a6020526040902080546001600160a01b031916909117815560018101610eb78382611255565b507fa0212d593b26e2507739cec03a534cb2fde3c1e9f5907d9dcaefbb339f6b4edc3383604051610ee992919061136e565b60405180910390a15050565b508054610f01906111d1565b5f825580601f10610f10575050565b601f0160209004905f5260205f2090810190610f2c9190610f2f565b50565b5b80821115610f43575f8155600101610f30565b5090565b80356001600160a01b0381168114610f5d575f5ffd5b919050565b634e487b7160e01b5f52604160045260245ffd5b5f82601f830112610f85575f5ffd5b813567ffffffffffffffff811115610f9f57610f9f610f62565b604051601f8201601f19908116603f0116810167ffffffffffffffff81118282101715610fce57610fce610f62565b604052818152838201602001851015610fe5575f5ffd5b816020850160208301375f918101602001919091529392505050565b5f5f5f5f60808587031215611014575f5ffd5b61101d85610f47565b9350602085013567ffffffffffffffff811115611038575f5ffd5b61104487828801610f76565b935050604085013560ff8116811461105a575f5ffd5b9150606085013567ffffffffffffffff811115611075575f5ffd5b61108187828801610f76565b91505092959194509250565b5f5f6040838503121561109e575f5ffd5b6110a783610f47565b91506110b560208401610f47565b90509250929050565b5f602082840312156110ce575f5ffd5b6110d782610f47565b9392505050565b5f81518084528060208401602086015e5f602082860101526020601f19601f83011685010191505092915050565b60018060a01b038616815284602082015260a060408201525f61113260a08301866110de565b60ff85166060840152828103608084015261114d81856110de565b98975050505050505050565b602081525f6110d760208301846110de565b5f6020828403121561117b575f5ffd5b813567ffffffffffffffff811115611191575f5ffd5b61119d84828501610f76565b949350505050565b634e487b7160e01b5f52601160045260245ffd5b5f600182016111ca576111ca6111a5565b5060010190565b600181811c908216806111e557607f821691505b60208210810361120357634e487b7160e01b5f52602260045260245ffd5b50919050565b601f82111561125057805f5260205f20601f840160051c8101602085101561122e5750805b601f840160051c820191505b8181101561124d575f815560010161123a565b50505b505050565b815167ffffffffffffffff81111561126f5761126f610f62565b6112838161127d84546111d1565b84611209565b6020601f8211600181146112b5575f831561129e5750848201515b5f19600385901b1c1916600184901b17845561124d565b5f84815260208120601f198516915b828110156112e457878501518255602094850194600190920191016112c4565b508482101561130157868401515f19600387901b60f8161c191681555b50505050600190811b01905550565b6001600160a01b03851681526080602082018190525f90611333908301866110de565b60ff85166040840152828103606084015261134e81856110de565b979650505050505050565b5f81611367576113676111a5565b505f190190565b6001600160a01b03831681526040602082018190525f9061119d908301846110de56fea26469706673582212204d79abfc55ef725a61cb6eca403d51b80331f3fdf296bf5440e4ff85c5cf576c64736f6c634300081c0033",
  "linkReferences": {},
  "deployedLinkReferences": {},
  "immutableReferences": {},
  "inputSourceName": "project/contracts/RemoteHealthcareSystem.sol",
  "buildInfoId": "solc-0_8_28-4e400023803c8ef234990fe7b14ffa93f4d4c490"
}